:020000041000EA
:4000000000400208230100100D00000085010010000000000000000000000000000000000000000000000000000000008101001000000000000000008101001081010010E9
:400040008101001081010010810100108101001081010010810100108101001081010010810100108101001081010010810100108101001081010010810100108101001060
:400080008101001081010010810100108101001081010010810100108101001081010010810100108101001081010010810100108101001081010010810100108101001020
:4000C00010B5064C2378002B07D1054B002B02D0044800E000BF0123237010BD3C06000800000000F82F0010084B10B5002B03D00749084800E000BF07480368002B00D103
:4001000010BD064B002BFBD09847F9E70000000040060008F82F0010E8000008000000007047FFF7FDFF72B60F4C104DAC4209DA21686268A368043B02DBC858D050FAE782
:400140000C34F3E70A490B4A0020521A02DD043A8850FCDC084809490860BFF34F8F00F005F900F01DF8FEE7FC2F0010143000103C060008140800080000000808ED00E018
:40018000FEE7FEE700B504207146084202D0EFF3098001E0EFF30880043001F0C3FAFEE710B562B6014800F067F9FEE70000081010B5002001F034F810BDC04670B5624934
:4001C000E0239B00CB580F2213401A00D0329200525807210A40032A05D0042A06D0002A12D15A4814E05A4A106811E01A00C0329200554952581F210A40112A06D0132A7C
:4002000004D0FA20C00103E0524801E080200002002B36D14C4BB222D2009A5801211140B125ED005A59120F032422405B591B0F1C4207D0444C63591B0F03242340012BDC
:4002400002D102E0012300E00023002B01D0002901D1032A4BD13C4BB022D2009D58AD03AD0B3D495958C904C90C9C58240E01231C40013401F0CCFD6843210001F0C8FDEA
:4002800035E0012B33D1304BC822D2009A5801251540C024E4001A59120F03210A401B591B0F194207D028490B591B0F03210B40012B02D102E0012300E00023002B01D049
:4002C000002D01D1032A12D11F4DC022D200AB587F210B40A958090A1F263140AC58240C3440584301F094FD210001F091FDE0239B00154AD3581B0903221340D840144C76
:400300006060164B1D692D0AFC32154001351969090E013101F07CFDA060290001F078FD0500E06020610E4BC0180E4901F070FD20750D4BE818FA21890001F069FDA061CD
:40034000C003E06170BDC0460000264000127A00C000000800366E0184050000000021403F420F0040420F00E703000010B5284801F048FD274CB022D200A3585B005B08B7
:40038000A350E0218900635830208343635080235B04A350204A214BE250A02292010433E250FF221E4BE25001F01AFDC0225200A35801218B43A35000F02AFAFFF7FEFEA5
:4003C000B0235B055B78002B04D0B0235B055B78DBB200E02123212B03D1124B0022DA605A60114C22008021042000F0BFFC2000103000F053FD0D4B1A685123D35C002B77
:4004000002D00B4800F0C0FD00F088FB10BDC046402F00100000264001000200840500008C050000E00023405806000810080008881F00108023024AD358032018407047D6
:400440000000214010B501F000FA084980228C58074B2340074C23438B508823034AD358DB06FAD501F0F5F910BDC04600002140FCFF00000100FA0570B50500830504D0E4
:40048000E821FF310F4801F01FF901F0DEF90400FFF7D0FF032801D1FFF7D4FF0A4AB0239B00D55080215058084B03400848034353508823044AD358DB06FAD5200001F068
:4004C000C8F970BDBC1F001000002140FCFF00000300FA05FEE7C046F0B50025002711E0BB00C658F3B2FF22964308E06A008A181478A419527822700135013BDBB2002BBD
:40050000F4D10137052FEBD9F0BDC04680221206054B1A600F23054A1360054A1360054A054B1A607047C04600001D4100031D4144031D4101001180000E1F4110B50A00D0
:40054000002101F0FAFC10BD10B501F0EDFC10BD30B587B09D49A022D2008B58032083438B509B4A116808688823CB58C31818689849084018601368186884241B59C01876
:4005800003681B021B0A80256D042B430360106805680359EB1818680140196013683E229A5C002A06D08948E02189004258753CA24342503E229A5C002A06D08348E02119
:4005C000890042583024A24342503E229B5C002B07D07E49E02292008B588020000603438B500021012000F04DFE0021022000F049FE0021032000F045FE0021042000F00C
:4006000041FE0021002000F03DFE01A8724903000A0032CA32C312CA12C300F061FE002802D00420FFF756FF68496C4A8B588020000603438B506A4800F00CFF002802D08C
:400640000420FFF747FF614C664BE158664A0A40E250E158654A0A40E250E25880252D062A43E250043BE158614A0A40E250E158604A0A40802189010A43E250E2588021F1
:4006800009020A43E2505C4A11685C4B0B40802149000B431360002001F018FB584BE2581543E550E158012291430A43E2506421002001F04FF8464B1B683F229A5C052A40
:4006C00006D970229A5C01210A404E49986842509A6874215B5AD21851683E4B0B408C2189010B4353603A4B1B6873229A5C0321914070229A5C7220185C140084402143B1
:40070000012002400A43802109060A438021C900986842509A6852583F229A5C392A06D970229A5C02210A403749986842509A6874215B5AD2189168264B0B40C42189016A
:400740000B439360224B1B6873229A5C0321914070229A5C7220185C140084402143022002400A43802109060A438021C900986842509A6852583F229A5C092A03D9002121
:40078000224A986881509A6874215B5AD2181168104B0B40802149000B4313600C4B1A687323D15C703B8B4019007023D35C7220105C83400B43802109060B438021C90098
:4007C0009068435093685B5807B030BD0000264010080008FF00FFFFD41F0010087F0000400D030004050000FEFCFFFFFFFF00FFFFF0FFFFFF8FFFFF00002740FFFCFFFFE8
:400800000C050000140C0000E40C0000240C000070B58AB09621002000F09CFF00F072FF002814D100F05EFFC0235B00524AD358DB0705D41100514A8B585B005B088B5003
:400840004D494E4A8B588020000603438B50012001F0D4F94A4A516C4A4B0B40E82189010B435364536C1B0AFF2213403A2B07D1434A516C444B0B40E82189010B435364A7
:40088000002300224149424801F03EFA012300224049322001F038FA012300228021C905322001F031FAFFF753FE3B4A3B4B1A6000240CE0620012195300394AD318198B81
:4008C0009A8AD88A00041043FFF738FE01340A2CF0D900240AE0620012199300304AD3181A6ED96D986DFFF72FFE0134122CF2D92C4801003C317C30FFF7EEFD2A4A136896
:40090000832149000B43136001AC284D22002B00143343CB43C243CB43C243CB43C22100234800F003F922002B00383343CB43C243CB43C243CB43C221001E4800F0F6F84C
:4009400022002B005C3323CB23C223CB23C223CB23C22100184800F0E9F824220021200001F0EBFA0F2301932100144800F0DEF8FFF7CCFD0AB070BD000026400C0500004D
:4009800000002740FF00FFFFFFC5FFDF070E0040150E0000010000400300FA05F0012140D41F0010D4200010007934405421001080023240000332408004324000053240D5
:4009C000214B984230D00ED8402831D004D800281FD010282AD031E080282BD080235B00984229D02AE0194B984229D007D8A0231B0698420DD0164B984212D01EE0154B82
:400A000098420AD0144B984209D0144B984215D101E0002016E0124814E0124812E0124810E0A020C0030DE007480BE00F4809E00F4807E00F4805E0034803E00E4801E02D
:400A4000A420C0037047C04606005200010000F0090000A0040000F0050000F0030000F0010052000200520003005200010050000200500005005200FF00520070B5124B9B
:400A80001A683123D35C002B04D1C421FF310F4800F01AFE0C4B1D682C00B423EB582A6A944663441B68002B0BDB094B1868FFF787FF6B6801229A6063689B68002BFBD1ED
:400AC00000E0044870BDC04610080008782B0010E80700080200500010B50D4B1861002805D002230370FD33437000234380094B1B6850229A5C002A08D051229B5C002BB1
:400B000004D04F3A0449002000F0F8FA10BDC046E8070008100800086101000810B502481430FFF7D9FF10BDE807000870B505000C0000285DD000295DD0FF230A689A437E
:400B400003D099212D4800F0BFFDFF2322699A4303D09A21294800F0B7FDA3685B0D03D09B21264800F0B0FD63685B0A03D09C21224800F0A9FDE3695B0F03D09D211F481F
:400B800000F0A2FD236A5B0F03D09E211B4800F09BFD1B4A11688B69EB1ADB0949691B01CB18216829607D211068415C6918E06808607E211068415C6918206908607F210A
:400BC0001068415C6918606908607C211068415C6918A06808606168A961116880228A5CAD18A2692A60E2691A60226A5A60002002E0044800E0034870BDC046B82B0010B3
:400C00001008000801005A0070B504000D000A4B1A68B423D3581B181B68002B0ADA0B0C03D00649064800F04FFD2D042D0C6560002000E0034870BD10080008D502000004
:400C4000382C001001008A0070B505000C000368002B01DA002300E0084B002B0BD1EA60230C03D00649074800F02EFD2404240CAC60002000E0014870BDC04601008A0001
:400C8000BB020000382C001070B505000C1E03D19921084800F018FD074B1A68B423D3585B191B68002B03DAEB682360002000E0024870BD782C00101008000801008A004B
:400CC00070B504000D00234B1A683123D35C834236D9002936D00B68DB0635D13123D35C984204D3C421FF311B4800F0EDFC194B1B681A6AB0215B5A5C431419174E3460B3
:400D00002B68DA080021686801F017F900212000FFF77AFF3468002D03D111490E4800F0D3FC2A0000212000FFF78EFF00280DD10A4B18680021FFF767FF002808D108E061
:400D4000084806E0074804E0064802E0064800E0054870BD10080008382C0010000800089303000003018A0001018A0010B50400002A17D1002915D1124B1A683123D35C92
:400D8000984204D3C421FF310F4800F09DFC0D4B1B681A6AB0215B5A5C4314190B4B1C6000200EE0002A09D0002909D0074B59609A60191D2000FFF783FF02E0044800E016
:400DC000034810BD10080008382C00100008000803018A00F0B583B00D001C4B1B68DC68236883422DD947097B01C01A012383401E00002903D100F028FD019001E00023EE
:400E00000193124B18680368002B01DA002300E00F4B002B0ED16368BF00DF193B68334203D0B3433B60002400E00A4C0021FFF7EBFE00E0084C002D04D1019800F009FD4C
:400E400000E0064C200003B0F0BDC0460008000801008A00020188000301880004018A000A4B1B68DA68136883420BD943095901401A0121814052689B009B580B4203D0F0
:400E8000034802E0034800E003487047000800080101880004018A0000018800034B1B68002B01D1014B18607047C0460C080008F0B5474680B404000F0090461E002D4BD6
:400EC0001B68002B03D1B5212B4800F0FDFB294B1B682C2060431C18FF22150035402560330A13406360360CA660244B1A683123D35C9D4204D3C421FF31214800F0E4FBE3
:400F00001E4B1A68B023D35A6B43116A8C466344236166683223D35C9E4204D3E021FF31174800F0D1FB154B1B681D6A80367601AD196561A668330C04D0FF214900104846
:400F400000F0C2FB330C03D00E490D4800F0BCFB3604330C1E43AE604346E36127620023A361069B002B02D000229B5EA38104BC9046F0BD0C080008B82C001010080008AA
:400F8000382C0010FF010000F0B58FB0041E03D15221294800F098FB6368032B03D95421254800F091FBE36A002B03D15821224800F08AFB236B002B03D159211E4800F048
:400FC00083FB07AA1300210061C961C321C921C302AD290023001433C1CBC1C141CB41C10821535E0CAE3380144B1B6836215B5E07998C466344B370089B0D930B9B0A9814
:401000000096A26AE16AFFF753FF2B69E868002200920021FFF74CFF216B300000F0E6FA0023F25E002A05DB1F231A401E3B9340034A13600FB0F0BDB82C00101008000870
:4010400000E100E0F8B505000F0016001C00002A03D1FD21224800F037FB224B1B68002B03D1FE211E4800F02FFB1E4B1B682C2128004843181879435918012213004D6852
:40108000AB401B044568AA4015000269002A20D08F69002F1FD11268002A01DA002200E0114A002A19D132681204120C134333600369DE6001238B614C6204692B0C03D058
:4010C0000A490B4800F000FB2A04120CA260002004E0084802E0084800E00748F8BDC046B82C00100C08000801008A00BB020000382C001004028A0007028A0070B5040089
:401100000D0016000F4B1B68002B04D1AF2149000D4800F0D9FA0B4B1B682C2060431C18236A002B04D1B1214900074800F0CCFAE369B34204D9236AB6009D51002000E086
:40114000024870BD0C080008B82C00100A028A0070B582B0040000230193002804D1D221FF312D4800F0B0FA2369002B04D1E9214900294800F0A8FA6369002B04D1D4216E
:40118000FF31254800F0A0FA236A002B04D1EA214900214800F098FA6269D5682B0C24D01B041360136820691C4B1A68B423D358C3181B68002B18DA01A9FFF765FD0028E3
:4011C0000ED1019803681E0CFF221340E269934207D29B00226AD358002B02D0984700E0002631002069FFF70FFD2D042D0C0FD063691D601B68636A002B03D098470023A3
:40120000636203E0A36A002B00D098470023A36163691B6802B070BDB82C00101008000810B50400084B1B68002B04D1B221FF31064800F049FA044B1B682C2060431818A2
:40124000FFF786FF10BDC0460C080008B82C001010B50400094B1B689B6CC340DB0703D4BE21074800F030FA044B1B681B691034A402E3580F20184010BDC0461008000870
:40128000F82C0010134B1A683C23D35C83421DD9042904D94B1EFF3B9BB2132B18D8FF290CD91F2319400C4A0300C0339B009950D03080000423835000200AE0072319402A
:4012C000D0308000044BC150002002E0034800E002487047100800080000264001004A0070B5041E03D14A494A4800F0EDF9B023DB00494AD358002B00DA87E0474B226805
:401300009A4203D94649434800F0DEF923689B039B0BE279002A02D08022520400E000221343B022D2003C498B50A2883D4B9A4204D984218900374800F0C6F92289344BA9
:401340009A4203D93849334800F0BEF9A388DB04D90C23891B04354A13400B43344A2E498B50A37A0F2B04D986218900294800F0ABF9E37A0F2B03D92E49264800F0A4F91A
:40138000A289284B9A4203D92B49224800F09CF9A37A0F211940E27A1201FF2313400B43A289120225490A401343A27B1207C02189050A401343B122D20017498B50A3790E
:4013C000042B03D91E49134800F07EF9228A104B9A4204D9892189000E4800F075F90E4818494558184B1D40A3791B02E022D20013402B4343504558144B1D40238A1B0478
:401400000A4A13402B434350002000E0104870BDFF010000382D001000002640FFFF030009020000FF1F0000110200000000FF0184050000190200001A02000000FF1F0089
:40144000230200008C050000FFF8FFFFFFFF00FE03004A0070B505003149324A8B588020000603438B502C0003E0012000F020F9013CB223DB002A4AD3585B0701D4002C86
:40148000F3D12749B122D2008858274B03408020800503438B50002D01D0002C0CD02049B022D2008B588020000603438B5003E0012000F0FDF8013CB223DB00184AD35858
:4014C000DB0701D4002CF3D1002D01D0002C08D01349B122D2008B58C020800503438B5013E00F4BB121C90058580F4A02408020800502435A5008395A58520052085A5049
:4015000008495A58520052085A50002D03D0002C03D0002002E0002000E0044870BDC046000026408C050000FFFFFFCF02004A0070B505000C001A4B1B6828229A5C012A3A
:4015400015D1820807211000884327D19200AD1AED00FF20A8401B6820339A181168AC4023004B40184004004C40146016E03A229B5EDBB2994203D176210A4800F0A4F8C0
:40158000074B1B681B68072215408022120615438022920194466444A400E55070BDC04610080008C02D001070B504000D000B4B9A680B4B9A420CD1002904D13821FF313F
:4015C000084800F081F81034054BA400E058E55003E01034A400044BE05870BD00ED00E000000008C02D001000000010F0B5474680B482B0061E01914AD04368032B03D90F
:401600003221264800F060F80023F05E002804DBB178FFF78DFF002400E0214C0023F15E7368002912DB88081E4FC0308000C55903221140C900FC3290468A4095439A019F
:40164000434613408B402B43C35116E089B20F220A40083A92080632920013481018476803221140C900FF252A008A4097439A012B0013408B403B4343600B4B9A680B4BD9
:401680009A4206D10023F05E0199FFF78DFF00E0034C200002B004BC9046F0BDC02D00100100560000E100E000ED00E00000000810B5034B1B78584300F0BEF810BDC04602
:4016C000D400000801BEFEE770B50D00044C18220100200000F039FCA5610020FFF7F2FF00060008054B802212069A649B6C002B01DB002000E002487047C04600002740C9
:4017000003004600054B8022120198585B68FF221A4202D08023DB021843704700002640FEE7C04610B50A4B0268DA6142681A6282685A62C2689A620269DA6242691A63F6
:4017400082695A63C2699A63FFF7EAFF10BDC04600060008F0B5474680B4002801D0192300E064238B429B415B42304D2C682268A826A45BA41822680327BA433B401A43E4
:4017800022602C682268A45BA2181668284CA046264016602C682668AA229446A25A96193268BA43134333602A6813686546525BD3181A68444614401C60002805D01029C7
:4017C0001BD921291BD8012024E0184B1B6855229A5C914215D956229A5C914213D957229A5C914211D958229A5C91420FD959229B5C99420DD804200CE000200AE002208D
:4018000008E0002006E0012004E0022002E0032000E00520054A1268526813680F218B430343136004BC9046F0BDC04610080008FFFCFFFF000000000230800803D00130B4
:401840000238FCD1C046C0467047EFF3108072B6704780F31088704710B5B0235B059B899BB2002B04D0B0235B059B899BB201E080235B0080225200934215D1184C236802
:401880001968683A9B58C9180B680F208343963A13430B6021680C689C23CB58E318196881430A431A6019E00D4C2368196898229B58C918B02040050A4BC2580A4B13403A
:4018C0000A681343C022920013430B60226811689C23D358CB18054A82581A6010BDC0461008000848180000FFFCFFFF4418000030B5B0235B059B899BB2002B04D0B02375
:401900005B059B899BB201E080235B0080225200934215D1184C23681968683A9B58C9180B680F208343953A13430B6021680C689C23CB58E318196881430A431A6019E08B
:401940000D4D2B68196898229B58C918B0246405C12040012258094B13400A681343C022920013430B602A6811689C23D358CB1822581A6030BDC04610080008FFFCFFFF16
:40198000B0235B059B899BB2002B04D0B0235B059B899BB201E080235B008022520093420DD1104B1B681A6898215B58D21811680D4B0B40C021C9010B43136011E0094BD7
:4019C0001B68196898229B58C918084BB0225205D258074B13400A681343C022920013430B60704710080008FF8FFFFF18180000FFFCFFFF30B5B0235B059B899BB2002BCD
:401A000004D0B0235B059B899BB201E080235B008022520093420DD1134B1B681A6898215B58D2181168114B0B408021C9010B43136018E00C4D2B68196898229B58C918B0
:401A4000B02464050A4822580A4B13400A681343C022920013430B602A6811689C23D358CB1822581A6030BD10080008FF8FFFFF4C180000FFFCFFFF10B5B0235B059B89DA
:401A80009BB2002B04D0B0235B059B899BB201E080235B0080225200934217D10020FFF7D7FBB0235B055B78002B04D0B0235B055B78DBB200E02123222B03D8002803D1DE
:401AC000013004E0012002E0002000E0012010BDF8B50700012803D93D493E48FFF7F4FDB0235B055B78002B04D0B0235B055B78DBB200E021239DB2B0235B059B899BB285
:401B0000002B04D0B0235B059E89B6B201E0802676000020FFF79CFB002814D180235B009E4212D1222D12D82B4B1B685C682B4821582B4B19403B068022520413400B43E1
:401B40002350002404E0274C02E0264C00E0254C80235B009E4201D1222D03D880235B009E4232D01C4B1A683123D35C002B04D1C421FF311C48FFF7A7FD174B1B681D6A2D
:401B800080235B009E4203D1002F05D0174A06E0002F03D0164A02E0164A00E0164A01212800FFF751F800280FD10B4B1A68B423D3585B191B68002BF7DBEB681B0E1B0648
:401BC000A0221206934200D100242000F8BDC0464C0A0000042E00101008000818F00000FFFFFFFE04004200782B0010010100300300000C010000300100000CF8B5050081
:401C0000012804D9822109012948FFF75DFDFFF733FF002849D0FFF718FE0700002D11D10021244B244AD150E823DB00B0225205D65CF6B20120FFF74BFF041E19D1FFF73A
:401C40000BFE16E0B02252051C4BD0581A4B194958501B49565CF6B21A481A581F218A4314390A431A500320FFF722FDFFF7C2FE0024002C15D11049124A8B581F208343DA
:401C800006401E438E50002D02D1FFF779FE08E00720FFF70DFDFFF72BFE0020FFF718FF04003800FFF7D5FD00E0074C2000F8BD042E0010307F000000002640101800004C
:401CC000410700001CFF000003004200042805D10B4A116804230B4313600FE0094B1A681168A023D358CB180006C022920410401860034A136804218B4313607047C04644
:401D000010E000E010080008F0B54F464646C0B483B006000D0000921F00012B03D95B212B48FFF7D1FC330B03D05C212848FFF7CBFC284B1A686E23D35A9B08013B264A0B
:401D400013432A009A4301D16B0003D45D212048FFF7BAFC32006A40F0231B011A40141E2FD1FFF772FD01901A4B18686C23C15A83689C4661446E23C35A9A08013A2A40DD
:401D8000920090466A22825A15402D0A5D432A00424455182A68920A9202FF231E40009B002B01D00134FF3426437F0280239B001F403E4316432E600198FFF74AFD0020E4
:401DC00000E0064803B00CBC90469946F0BDC046442E001010080008000F00400100CE000749C02252008B589B009B088020C00503438B508B588020000603438B50704786
:401E000000002640014B18607047C04610080008002243088B4274D303098B425FD3030A8B4244D3030B8B4228D3030C8B420DD3FF22090212BA030C8B4202D312120902B4
:401E400065D0030B8B4219D300E0090AC30B8B4201D3CB03C01A5241830B8B4201D38B03C01A5241430B8B4201D34B03C01A5241030B8B4201D30B03C01A5241C30A8B4231
:401E800001D3CB02C01A5241830A8B4201D38B02C01A5241430A8B4201D34B02C01A5241030A8B4201D30B02C01A5241CDD2C3098B4201D3CB01C01A524183098B4201D3AA
:401EC0008B01C01A524143098B4201D34B01C01A524103098B4201D30B01C01A5241C3088B4201D3CB00C01A524183088B4201D38B00C01A524143088B4201D34B00C01A44
:401F00005241411A00D20146524110467047FFE701B5002000F006F802BDC0460029F7D076E770477047C046002310B59A4203D0CC5CC4540133F9E710BD030082189342A0
:401F400002D019700133FAE77047030030B5002A0DD00C7801335D1E013A2C700131002CF5D19A189A4202D01C700133FAE730BDF8B5C046F8BC08BC9E467047F8B5C046B6
:401F8000F8BC08BC9E4670470300000001000000010000000000000005036000040000000100000000000000010000000604600008000000C8070008B101001073797374BD
:401FC000656D5F70736F63365F636D30706C75732E630000F4010000140004010A00090508000000630100000020344074008020344074000022344074008022344074005B
:40200000002434407400802434407400002634407400802634407400002834407400802834407400002A344074000000802A3440D421001074000000002134404822001014
:402040009000000000233440D82200109000000000253440682300109000000000273440F823001090000000002934408824001090000000002B3440182500109000000020
:4020800000603440A82500107C00000080603440242600107C00000000613440A02600107C000000806134401C2700107C00000000623440982700107C0000008062344007
:4020C000142800107C00000000633440902800107C000000806334400C2900107C00000000643440882900107C00000080643440042A00107C00000000653440802A00102B
:402100007C00000080653440FC2A00107C0000002C082D0900FD04D1062A08080A7612101447168818032020303F3280343F3640388856025C045F046301EC0728852C078A
:4021400030F0340CA8B1ACA4B02AB40A0001180102013440132A344001703440047134400472344002783440330000000000000000000000680666000000000000000000CF
:402180000000000012120000030300003C000000000000000000000000EEE6BA0000000000000000000000000000020203021D1D370000000000000000000000EE0EEE00C7
:4021C000000000000000000000000000020202000202000001002000A900502021000004000000000000000F6303841800020001DE072110100100020000002025079A1043
:40220000080080100220801C1F03600000020028000004016203000000DEC62F3FFFFFFF00000000040000000000FF01000000000404040D000000010000C0003000001005
:402240008000200040401050000000000000000000000000FFFFFFFFFFFFFFFFFFFFFFFFFFFFFFFFFFFFFFFFFF000000FFFFFFFFFFFFFFFFFFFFFFFFFFFFFFFFFFFFFFFF07
:40228000FF000000000000000000000000000000000000000000000000000000FFFFFFFFFFFFFFFFFFFFFFFF11111111111111111111111111111111111111111111111193
:4022C000111111111111111111111111111111111111111111111111000000000000000000000000FFFFFFFFFFFFFFFFFFFFFFFFFFFFFFFFFFFFFFFFFF000000FFFFFFFF5F
:40230000FFFFFFFFFFFFFFFFFFFFFFFFFFFFFFFFFF000000000000000000000000000000000000000000000000000000FFFFFFFFFFFFFFFFFFFFFFFF111111111111111132
:4023400011111111111111111111111111111111111111111111111111111111111111111111111111111111000000000000000000000000FFFFFFFFFFFFFFFFFFFFFFFFC1
:40238000FFFFFFFFFFFFFFFFFF000000FFFFFFFFFFFFFFFFFFFFFFFFFFFFFFFFFFFFFFFFFF000000000000000000000000000000000000000000000000000000FFFFFFFF3F
:4023C000FFFFFFFFFFFFFFFF1111111111111111111111111111111111111111111111111111111111111111111111111111111111111111111111110000000000000000B5
:4024000000000000FFFFFFFFFFFFFFFFFFFFFFFFFFFFFFFFFFFFFFFFFF000000FFFFFFFFFFFFFFFFFFFFFFFFFFFFFFFFFFFFFFFFFF00000000000000000000000000001FA7
:40244000000000000000000000000000FFFFFFFFFFFFFFFFFFFFFFFF1111111111111E111111111111111111111111111111111111111111111111111111111111111111B3
:402480001111111111111111220000000400000000000000FFFFFFFFFFFFFFFFFFFFFFFFFFFFFFFFFFFFFFFFFF000000FFFFFFFFFFFFFFFFFFFFFFFFFFFFFFFFFFFFFFFF97
:4024C000FF00000000000000000000000000000000000000F035F24F40F00011FFFFFFFFFFFFFFFFFFFFFFFFD1111D11111D1F111111001DD1111101111111110111111129
:4025000011111011011111111110111111111111111111111111111104000014004000000000000003F23F5FF414342350432FF30FF33F030011101FFF00000000F331F17E
:40254000F4FFFFFFF4FFFFFFFFFFFF40FFFFFFFFFF000000000000000000000000001F001F000000055F003003050000FFFFFFFFFFFFFFFFFFFFFFFFF3117FE4111FEF11DC
:402580007885271FF111173161471911C331111D11211B21711113113B8A121B11111111111111111111111100000000000000001F1F1F1F1F1F1F1F1F1F1F1F1F1F1F1FD8
:4025C0001F1F1F1F1F1F1F1F1F1F1F1F1F1F1F1F000000000000000000000000000000000000000000000000FFFFFFFFFFFFFFFFFFFFFFFF1111111111111111111111112B
:4026000011111111111111111111111111111111111111111111111111111111111111111111111100000000000000001F1F1F1F1F1F1F1F1F1F1F1F1F1F1F1F1F1F1F1FCA
:402640001F1F1F1F1F1F1F1F1F1F1F1F000000000000000000000000000000000000000000000000FFFFFFFFFFFFFFFFFFFFFFFF11111111111111111111111111111111E2
:40268000111111111111111111111111111111111111111111111111111111111111111100000000000000001F1F1F1F1F1F1F1F1F1F1F1F1F1F1F1F1F1F1F1F1F1F1F1F12
:4026C0001F1F1F1F1F1F1F1F000000000000000000000000000000000000000000000000FFFFFFFFFFFFFFFFFFFFFFFF11111111111111111111111111111111111111119A
:402700001111111111111111111111111111111111111111111111111111111100000000000000001F1F1F1F1F1F1F1F1F1F1F1F1F1F1F1F1F1F1F1F1F0F1F101F1F1F1F78
:402740001F1F1F1F00000000000000000000000F000000000000000000000000FFFFFFFFFFFFFFFFFFFFFFFF111111111111111111F1111111111111111111111111111162
:4027800011111111111111111111111111111F11111111111111111100000001000000001F1F1F061F1F1F1F1F1F1F1F1F1F1F1F121F141F1F141F0F1F1F1F1F1F1F1F1FDE
:4027C0000000000000000000000000000000000000F00F03001000F0FFFFFFFFFFFFFFFFFFFFFFFF111111111111121111F1111111111111D1111111111111111111111166
:4028000011111F1111F1111111111DD1111111F11111111100000000000000001F1F1F1F1F1F1F1F1F1F1F1F1F1F1F1F1F1F1F1F1F1F1F1F1F1F1F1F1F1F1F1F00000000CA
:402840000000000000000000000000000FF000F0000F0000FFFFFFFFFFFFFFFFFFFFFFFF111111111111111111D111111111111111111111111111111111111111111D117A
:4028800011D1111111111111111111D11111111100000000000000001F1F1F1F1F1F1F1F1F1F1F1F1F1F1F1F1F1F1F1F1F1F1F1F1F1F1F1F1F1F1F1F0000000000000000A8
:4028C00000000000000000000000000000000000FFFFFFFFFFFFFFFFFFFFFFFF11111111111111111111111111111111111111111111111111111111111111111111111180
:4029000011111111111111111111111100000000000000001F1F1F1F1F1F1F1F1F1F1F1F1F1F1F1F1F1F1F1F1F1F1F1F1F1F1F1F1F1F1F1F000000000000000000000000EB
:40294000000000000000000000000000FFFFFFFFFFFFFFFFFFFFFFFF11111111111111111111111111111111111111111111111111111111111111111111111111111111BB
:40298000111111111111111100000000000000001F1F1F1F1F1F1F1F1F1F1F1F1F1F1F1F1F1F1F1F1F1F1F1F1F1F1F1F1F1F1F1F00000000000000000000000000000000AF
:4029C0000000000000000000FFFFFFFFFFFFFFFFFFFFFFFF1111111111111111111111111111111111111111111111111111111111111111111111111111111111111111F7
:402A00001111111100000000000000001F1F1F1F1F1F1F1F1F1F1F1F1F1F1F1F1F1F1F1F1F1F1F1F1F1F1F1F1F1F1F1F000000000000000000000000000000000000000072
:402A400000000000FFFFFFFFFFFFFFFFFFFFFFFF11111111111111111111111111111111111111111111111111111111111111111111111111111111111111111111111132
:402A800000000000000000001F0F061F1F1F1F1F1F1F1F1F1F1F1F1F16061F0008171F1F1F1F1F1F1F1F1F1F00000000000000000000000000000000200F50F0F00000FF61
:402AC000FFFFFFFFFFFFFFFFFFFFFFFFD11D1111111111111111111411111111111111111111111111111111111111111111111111D111D10111111111111D110000000067
:402B0000000000001F1F1F1F1F1F1F1F1F1F1F1F1F1F1F1F1F1F1F1F1F1F1F1F1F1F1F1F1F1F1F1F00000000000000000000090009000000000000000F000000FFFFFFFF98
:402B4000FFFFFFFFFFFFFFFF1111111F111111111111111111111111111111111111111111111111111111111111111111111111D11111111111111147656E657261746534
:402B8000645F536F757263655C50536F43365C70646C5C647269766572732F7065726970686572616C2F6970632F63795F6970635F6472762E68000047656E65726174652B
:402BC000645F536F757263655C50536F43365C70646C5C647269766572735C7065726970686572616C5C6770696F5C63795F6770696F2E630000000047656E65726174652E
:402C0000645F536F757263655C50536F43365C70646C5C647269766572735C7065726970686572616C5C6770696F5C63795F6770696F2E680000000047656E6572617465E8
:402C4000645F536F757263655C50536F43365C70646C5C647269766572735C7065726970686572616C5C6970635C63795F6970635F6472762E68000047656E6572617465E3
:402C8000645F536F757263655C50536F43365C70646C5C647269766572735C7065726970686572616C5C6970635C63795F6970635F6472762E63000047656E6572617465A8
:402CC000645F536F757263655C50536F43365C70646C5C647269766572735C7065726970686572616C5C6970635C63795F6970635F706970652E630047656E657261746506
:402D0000645F536F757263655C50536F43365C70646C5C647269766572735C7065726970686572616C5C70726F745C63795F70726F742E630000000047656E6572617465C0
:402D4000645F536F757263655C50536F43365C70646C5C647269766572735C7065726970686572616C5C737973636C6B5C63795F737973636C6B2E630000000047656E6584
:402D800072617465645F536F757263655C50536F43365C70646C5C647269766572735C7065726970686572616C5C737973636C6B5C63795F737973636C6B2E680000000012
:402DC00047656E6572617465645F536F757263655C50536F43365C70646C5C647269766572735C7065726970686572616C5C737973696E745C63795F737973696E742E6336
:402E00000000000047656E6572617465645F536F757263655C50536F43365C70646C5C647269766572735C7065726970686572616C5C737973706D5C63795F737973706D62
:402E40002E63000047656E6572617465645F536F757263655C50536F43365C70646C5C647269766572735C7065726970686572616C5C747269676D75785C63795F747269AA
:402E8000676D75782E6300000000204000002440000000400000000000002340000030400000314000009F40000022400000104002020202020202020210101D8000170001
:402EC0007500FF030602063604102000000000007FC0000000040000000000000019324B647D00804000080B100000000000FF012002001F00800004FF081018001000142E
:402F00000018001C4044484C50000000081000000800000004000000041000000012000004210000002100000016000040114002C41300138013A013200000001C00000050
:402F40000000214000002540000001400000344000002440000031400000324000001F410000234000001140010101010101010101101010800019005500F0000501053B1E
:402F800004101C01010000000FC000000004000001010101011D3A57789600082000101208000000001F00000010000F002000023F06080E00080009000A000B24282C3070
:402FC00034000000100000009000000088000000080000008000000004F0000000F00000400200002005A000D00100018001A00120000000100000000000000000000010CE
:4030000000000008C00000001C300010C0000008400500003C060008D80100000048E80100127A0000093D0000093D0000093D0004000000A00F00000000D007E90000102A
:40304000C10000100000000010B50004400B27D0144B1A68146AB023D15ACA00531AE3181B68002BF4DA3E220F4B1A600F4A104B1A60104B0621A322D20099500E4A9850C5
:403080009B58084B1A68106AB023D15ACA00531AC31800225A60084B064AD358002BFADA10BDC04610080008040126401E1F000008012640000026401C05000010B5437804
:4030C000FF2B20D100F022FA04000F4B1A683123D35C042B04D8C421FF310C4800F0F6F9094B1A68116AB023D35A9B00CB18DB685A68116801230B4313601368DB07FCD494
:40310000200000F0EBF910BD10080008782B0010F0B585B001900291544B1A683123D35C002B04D1C421FF31514800F0CFF94F4B1B681E6AB4229A58971950229B5C002B42
:4031400077D000F0FBF9050003283CD1474B1A683123D35C062B04D8C421FF31444800F0B5F9424B1968B023CB5A5A00D21853000A6A94466344B4228A58D3181B68002B21
:4031800023DB002000F0CAF93A4B98421FD03A4B1A6900230021012000F0B0F9002803D0364C17E0013400E00024002000F0B6F9304B984202D0324B9C42F3D9304B9C42D7
:4031C00007D92E4C06E0002404E02C4C02E02B4C00E00024002C46D100F098F90390294B294AD358002B13DA234A0121300000F0ADF900280ED10298FFF726FF019B002B59
:403200000AD03B68002BFCDB00F090F9040004E01A4C02E0194C00E01C4C032D05D10121002000F063F90028F9D1039800F056F919E000F06BF905000F4A0121300000F06C
:4032400085F9002809D1019B002B08D03B68002BFCDB00F06BF9040002E0084C00E00B4C280000F03BF9200005B0F0BD10080008782B001001018800E8070008050052004C
:40328000EF4902001C0500000000264001005000F0B54F464646C0B4824B1A685468B0235B055B78002B04D0B0235B055B78DBB200E02123212B67D1B023D15ACB005B1A39
:4032C000116A8C46634419680029F5DADD6802212943D960B023D15ACB005B1A116A8C466344D968C9073ED5D9680904090C8C4684271168D559A84641440968090A090473
:40330000FF26360431400D0088261168894691598846C14449460968090A0906294365462943D9601168D359C9180A685E4B98461A4090252D012A430A605A4B99461A6886
:4033400013689C46925962441368414619400B002B4313604B461A681568D15969180B689359EB181B684F4B1A68B021555AEB005B1B156AAC46634400255D60156A515AD7
:40338000CA00531AEB185B68484A116904230B431361012801D030BF00E020BF414B1A68B023D15ACB005B1A116A8C46634419680029F3DAB02149054978002904D0B0210E
:4033C00049054978C9B200E02121212932D1D968C90722D510688421525880180468324A1440DB681B0C1B02FF2109020B40234303602C4B19688823C8580B689C466044AF
:4034000003681A400D6AB023CC5AE1000B1BEB18DB681B0E1B021A430260224B1A68106AB023D15ACA00531AC318DA6802218A43DA6028E086235B00E358002B23D11C4856
:4034400007681C4BA321C9005E581B4A904615681A4A0260062058503E21424611600631174A9950164B134AD358002BFADA154A86235B00E2500E4B1F60A323DB000D4AC1
:40348000D6500D4B1D60074B1A68106AB023D15ACA00531AC31800225A600CBC90469946F0BDC04610080008FF00FFFF00ED00E00801264000002640040126401E1F000040
:4034C0001C050000AAAAAAAA0000000001B40248844601BC604700BFC916001001B40248844601BC604700BF5318001001B40248844601BC604700BFD50D001001B40248E4
:40350000844601BC604700BF4510001001B40248844601BC604700BF4B18001001B40248844601BC604700BF610E001001B40248844601BC604700BF7D0A001001B40248ED
:40354000844601BC604700BF3504001001B40248844601BC604700BF490C0010000000000000000000000000000000000000000000000000000000000000000000000000C4
:40358000000000000000000000000000000000000000000000000000000000000000000000000000000000000000000000000000000000000000000000000000000000000B
:4035C00000000000000000000000000000000000000000000000000000000000000000000000000000000000000000000000000000000000000000000000000000000000CB
:020000041008E2
:4000000000780408EB0208100D00000051030810510308105103081051030810000000000000000000000000000000004D0308104D030810000000004D0308104D030810DA
:400040004D0308104D0308104D0308104D0308104D0308104D0308104D0308104D0308104D0308104D0308104D0308104D0308104D0308104D0308104D0308104D03081000
:400080004D0308104D0308104D0308104D0308104D0308104D0308104D0308104D0308104D0308104D0308104D0308104D0308104D0308104D0308104D0308104D030810C0
:4000C0004D0308104D0308104D0308104D0308104D0308104D0308104D0308104D0308104D0308104D0308104D0308104D0308104D0308104D0308104D0308104D03081080
:400100004D0308104D0308104D0308104D0308104D0308104D0308104D0308104D0308104D0308104D0308104D0308104D0308104D0308104D0308104D0308104D0308103F
:400140004D0308104D0308104D0308104D0308104D0308104D0308104D0308104D0308104D0308104D0308104D0308104D0308104D0308104D0308104D0308104D030810FF
:400180004D0308104D0308104D0308104D0308104D0308104D0308104D0308104D0308104D0308104D0308104D0308104D0308104D0308104D0308104D0308104D030810BF
:4001C0004D0308104D0308104D0308104D0308104D0308104D0308104D0308104D0308104D0308104D0308104D0308104D0308104D0308104D0308104D0308104D0308107F
:400200004D0308104D0308104D0308104D0308104D0308104D0308104D0308104D0308104D0308104D0308104D0308104D0308104D0308104D0308104D0308104D0308103E
:400240004D0308104D0308104D0308104D0308104D0308104D0308104D0308104D0308104D0308104D0308104D0308104D0308104D0308104D0308104D0308104D030810FE
:400280004D0308104D0308104D03081010B5054C237833B9044B13B10448AFF300800123237010BD0C4A0208000000008C960910084B10B51BB108490848AFF300800848D2
:4002C000036803B910BD074B002BFBD0BDE81040184700BF00000000104A02088C960910DC430208000000007047FFF7FDFF72B6104C114DAC4209DA21686268A368043BEE
:40030000A2BFC858D050FAE70C34F3E70B490C4A00209142BCBF41F8040BFAE709480A490860BFF34F8F00F0D3FE00F0ADFE00F06BFCFEE790960910A89609100C4A0208B6
:4003400094F002080040020808ED00E0FEE7FEE700B504207146084202D0EFF3098001E0EFF30880043002F06BFAFEE730B589B07F4B1B68012B40F08D807E4B1B78002BD9
:4003800040F084807C4B1B7863BB7A4B5A687B4B1340002B03DA013B63F0FF030133754A536015E0764B53F82030C3F30B03714D05EB840293600CF03FFB6D4BD3E90223A7
:4003C0000CF0EEF90CF038FE68600134C5F8E044684B5868FF2859DCD3F8E044B4F59B7FE0DB53E0012B51D1624B93F8E434EBB9614BDB69012B19D15D4BD3E904235E4C1E
:40040000CDE906235E4B049304F110030FCB8DE80F0094E80F0001F0C5F938B1554B012183F8E4140021C3F8E0145860514B93F8E4345BB34F4B5A68504B1340002B03DAB8
:40044000013B63F0FF0301334A4A536015E04C4B53F82030C3F30B03464D05EB840293600CF0EAFA424BD3E902230CF099F90CF0E3FD68600134C5F8E0443E4B5868FF2883
:4004800004DCD3F8E044B4F59B7FE0DB0222384B1A609BE0022B40F09980364B1B78002B40F09180344B1B7863BB324B5A68334B1340002B03DA013B63F0FF0301332D4AD9
:4004C000536015E02F4B53F82030C3F30B03294D05EB840293600CF0AFFA254BD3E902230CF05EF90CF0A8FD68600134C5F8E044204B5868FF2866DCD3F8E044B4F59B7F8E
:40050000E0DB60E0012B5ED11A4B93F8E434EBB9194BDB69012B19D1154BD3E90423164CCDE90623174B049304F110030FCB8DE80F0094E80F0001F035F938B10D4B01210B
:4005400083F8E4140021C3F8E0145860094B93F8E434002B37D0074B5A68084B1340002B03DA013B63F0FF030133024A536021E090420208284A020860EE0208FF000080A1
:400580005CE2020860EA02083A4B53F82030C3F30B03394D05EB840293600CF04DFA374BD3E902230CF0FCF80CF046FD68600134C5F8E044304B5868FF2804DCD3F8E044E8
:4005C000B4F59B7FE0DB01222C4B1A602A4BD3F8E034B3F59B7F29DB274B0022C3F8E02401221A70264BDB6993421FD1224B93F8E434DBB10022204B83F8E424214B1B683A
:4006000093F83330012B04D840F203711E4802F007F91C4B1A68B2F85A3003F1804303F52013B2F85C20134400229A61154B1B6893F83330012B04D840F2B361124802F0C2
:40064000EFF8104B1A68B2F85A3003F1804303F52013B2F85C100B4401211961B2F85A3003F1804303F52013B2F85C2013441B6909B030BD60EA0208284A02089042020836
:4006800060EE020884EE02080801091030B589B08B4B9B69012B40F09C808A4B93F8E534002B40F09280884B1B788BBB854BD3F8E824864B1340002B03DA013B63F0FF03DE
:4006C0000133804AC2F8E83417E0814B53F82030C3F30B037B4D05EB8402C2F8EC340CF0ABF9774BD3E902230CF05AF80CF0A4FCC5F8E8040134C5F8C449724BD3F8E804A3
:40070000FF2862DCD3F8C449B4F59B7FDDDB5CE0012B5AD16B4B93F8E4340BBB6A4BDB69022B1DD1664BD3E90423674CCDE90623674B049304F110030FCB8DE80F0094E8EA
:400740000F0001F02FF8E369022B09D140B15D4B012283F8E4240022C3F8C429C3F8E804584B93F8E43483B3564BD3F8E824574B1340002B03DA013B63F0FF030133514AFE
:40078000C2F8E83417E0534B53F82030C3F30B034C4D05EB8402C2F8EC340CF04DF9484BD3E902230BF0FCFF0CF046FCC5F8E8040134C5F8C449434BD3F8E804FF2804DCA8
:4007C000D3F8C449B4F59B7FDDDB02223C4B9A61A7E0022B40F0A5803A4B93F8E534002B40F09C80384B1B788BBB364BD3F8E824364B1340002B03DA013B63F0FF03013302
:40080000304AC2F8E83417E0324B53F82030C3F30B032C4D05EB8402C2F8EC340CF00CF9274BD3E902230BF0BBFF0CF005FCC5F8E8040134C5F8C449224BD3F8E804FF28D3
:400840006CDCD3F8C449B4F59B7FDDDB66E0012B64D11C4B93F8E434F3B91B4BDB69012B1AD1174BD3E90423174CCDE90623194B049304F110030FCB8DE80F0094E80F004C
:4008800000F090FF40B10F4B012183F8E4140021C3F8C419C3F8E8040A4B93F8E434002B3CD0084BD3F8E824084B1340002B03DA013B63F0FF030133024AC2F8E83423E088
:4008C00090420208284A020860EE0208FF00008060E6020858DE02082B4B53F82030C3F30B032A4D05EB8402C2F8EC340CF0A4F8274BD3E902230BF053FF0CF09DFBC5F814
:40090000E8040134C5F8C449204BD3F8E804FF2804DCD3F8C449B4F59B7FDDDB01221C4B9A611A4BD3F8C439B3F59B7F0EDB174B0022C3F8C429012283F8E524154BDB697C
:40094000022B03D10022114B83F8E424124B1B6893F8333023B940F2B361104801F060FF0D4B1A68B2F85A3003F1804303F5201301211961B2F85A3003F1804303F520133B
:400980001B6909B030BD00BF58DE0208284A02089042020860EE020884EE02080801091030B585B0344C009400238DF80430032202928DF80C308DF80D303049204602F0A9
:4009C00013FC2F4D2F49284602F00EFC2E4B63602E4AA2606B602E4BAB602E4C6A460121204602F039FD236843F0004323602A4B1B6893F83330012B04D840F2FA5127484D
:400A000001F00EFF244B1A68B2F85A30B2F85C1003F1804303F520135A5842F000425A501F4C2049204601F09DFEB4F90030002B08DB590903F01F03012202FA03F31A4A2A
:400A400042F82130144B1B6893F83330012B04D840F20371114801F0E3FE0F4B1A68B2F85A3003F1804303F52013B2F85C20134401229A6105B030BDF4DB0208FC0909101C
:400A80000CDC02082C0A091080011D415CE2020860EA02080000284084EE020808010910780509106D03081000E100E070B584B0314D009500248DF80440032302938DF8FC
:400AC0000C408DF80D402D49284602F08DFB2C4E2C49304602F088FB2B4B6B602B4AAA6073602B4BB3602B4D6A462146284602F0B3FC2B6843F000432B60274B1B6893F8D2
:400B0000333023B940F2FA51244801F089FE224B1B68B3F85A3003F1804303F520131A6842F000421A601E4C1E49204601F01AFEB4F90030002B08DB590903F01F030122D9
:400B400002FA03F3184A42F82130134B1B6893F8333023B940F20371104801F061FE0E4B1B68B3F85A3003F1804303F5201301229A6104B070BD00BF30DC0208240B09108E
:400B800048DC0208540B091084011D4160E6020858DE02080000284084EE020808010910800509108D06081000E100E0084BD3F8C03F13F0040F09D0054BD3F8400304227C
:400BC000C3F8C02FD3F8C03FC0B27047002070470000664070B5054600240FE0094BD3F8803F13F0020F09D0064E304601F034FF01340223C6F8803FD6F8803F295D00298C
:400C0000ECD170BD000066402DE9F043ADF6D41D62B603F083FD00F00DFE4FF47A7001F0DBFDFFF7BDFEFFF741FF02F0B7FE02F02DFE9B4B186800230222194640680DF06F
:400C4000BDF9984A002313700121D160116151614FF47A709061D16150609060ADF8CC3908E05A1D0DF2F44141F8232007A941F823200133B3F59B7FF3DB04230522F021C7
:400C80004FF4A07000F006FE02F0A2FE864802F08FFD02F071FE78252E46824C04F110030FCB8DE80F0094E80F0000F0E3FEFFF77DFF8DF8CC0938B10A2805D00DF6CC1171
:400CC0007A480DF049FA34E00A2832D1784CDFF8E88108F6C81904F11C0304F1200204F12401484600F008FA226AE369616A00916C4F04F1080103911034029408F6C821BF
:400D000001910146384600F045FC049007F110030FCB8DE80F0097E80F0000F0C1FA654B1860FFF757FF4FF48072002148460CF0CBFC614B1B78012B61D15F4B93F8C83A06
:400D4000012B41D15D4B1B6801935D4C236800935C4B32460521002000F0B0FE206804F044FC594B1B6803EB83039A00574B1A445368022B04D84FF47671554801F050FDF2
:400D80000221494802F03AFDC0F30B00C0EB00100301504E86FB0326DB17C3EBA616444BD3E904230DF2F4414B4800F09FFE444B1860424B1B68019300904FF47F433246B7
:400DC0000521002000F07AFE444B1B6893F83330012B04D840F20371414801F021FD3F4B1A68B2F85A3003F1804303F52013B2F85C20134401229A6100222F4B1A702E4BA3
:400E000093F8E534012B7FF448AF2B4B93F8C83A012B40D1294C23680193294B1B680093284B2A460521012000F048FE206804F0DCFB254B1B6803EB83039A00234B1A449A
:400E40005368032B04D84FF47671214801F0E8FC0321154802F0D2FCC0F30B00C0EB001003011C4D85FB0325DB17C3EBA515104BD3E9042307A91B4800F038FE0F4B1860D3
:400E800001900F4B1B6800934FF6FF732A460521012000F013FE0022074B83F8E524FCE69443020860EE020800001D41F05302089042020854DE0208284A020858E202082C
:400EC0005CE602080080800028DC0208980A091044010910D34D6210304A020884EE020808010910144F020808B5012001F000FC08BD00BF704700BF5C4AD2F8803303F083
:400F00000F0303F1D00152F8212002F00702032A04D0042A05D092B9554914E0554A116811E003F1C002514951F8222002F01F02112A06D0132A04D04FF4FA4103E04E4962
:400F400001E04FF400418BBB484BD3F8902502F00100D3F88825C2F30172D3F8883513F0405F07D0414BD3F88835C3F30173012B02D102E0012300E0002303B108B9032A37
:400F800046D13A48D0F88025C2F31103D0F88425C2F30C02D0F88005C0F300600130B1FBF2F202FB03F2B2FBF0F131E0012B2FD12E4BD3F8402602F00100D3F80026C2F30D
:400FC0000172D3F8003613F0405F07D0274BD3F80036C3F30173012B02D102E0012300E0002303B108B9032A12D12048D0F8002602F07F02D0F80036C3F30423D0F8000668
:40100000C0F3044002FB01F2B2FBF3F2B2FBF0F1164BD3F88033C3F3011321FA03F215494A601648D0F89030C3F3072301330069000E0130B2FBF0F08860B2FBF3F3CB6013
:401040000B6103F5742202F23F220D48A0FB0202C2F387420A7503F2E7330A4AA2FB03239B098B61DB03CB61704700BF0000264000127A00B842020800366E0100002140FE
:4010800083DE1B43D34D621008B50D4801F0B4FCFFF730FFFFF730FF00221146042001F0EFF8084801F082F9074B1B6893F8513013B1064801F0EAF901F02CF808BD00BF51
:4010C0008C070910F454020884EE02086401091008B501F012FC074AD2F8883043F47003C2F88830BFF34F8FBFF36F8F01F009FC08BD00BF00ED00E02DE9F04383B00F46F5
:401100009146984602A9202321F8043D0DF058F80446012500268DE0012D14D1514920460DF029F808B901357FE04F4920460DF022F8002800F083804C4920460DF01BF8A0
:40114000002872D17DE0022D6FD1494920460DF012F880B901A90DF033F8044645490DF00AF800286FD0444920460DF004F800286BD0102659E0414920460CF0FCFF48B94A
:4011800001A90DF01DF80A2200210DF0FDF83860052063E03A4920460CF0EDFF80B901A90DF00EF8044637490CF0E5FF00284ED0354920460CF0DFFF00284AD0122634E041
:4011C000324920460CF0D7FF78B901A90CF0F8FF04462F490CF0CFFF00283CD02D4920460CF0C9FFC8B30D261FE02B4920460CF0C2FF50B901A90CF0E3FF0A2200210DF0EF
:40120000C3F8C9F800000A2028E0244920460CF0B2FF50B901A90CF0D3FF0A2200210DF0B3F8C8F800000B2018E001A900200CF0C7FF0446002C7FF46FAF30460EE001200F
:401240000CE002200AE0032008E0042006E0072004E0062002E0082000E0092003B0BDE8F08300BF980109109C010910A4010910AC010910B4010910BC010910C401091025
:40128000D4010910E4010910F0010910FC0109100C02091010020910140209101C02091084B038B504AC84E80F009DF8303033B96F4C704D0FCD0FC42B682380D2E0012B02
:4012C00005D16D4B6A4C0FCB07C42370CAE0022B05D16A4B664C0FCB07C42370C2E0032B08D1634C664D0FCD0FC495E8070003C42280B7E0042B09D15D4C624D0FCD0FC4D8
:4013000095E8030044F8040B2170ABE0052B05D10A9A5D4956480CF0FBFEA3E0062B0BD1534C5A4D0FCD0FC495E80F0007C424F8023B1B0C237095E0072B0BD14C4C544D38
:401340000FCD0FC495E80F0007C424F8023B1B0C237087E0082B08D1454C4E4D0FCD0FC495E8070003C422807CE0092B08D1404C494D0FCD0FC495E8070003C4228071E0A1
:401380000A2B05D1059A454939480CF0C1FE69E00B2B05D1069A424935480CF0B9FE61E00D2B0BD1324C3F4D0FCD0FC495E80F0007C424F8023B1B0C237053E00E2B05D14F
:4013C000472239492A480CF059F94BE00F2B0DD1274C364D0FCD0FC40FCD0FC40FCD0FC495E8030044F8040B21803BE0102B0AD11F4C2F4D0FCD0FC40FCD0FC495E8070096
:4014000084E807002EE0112B0CD1194C294D0FCD0FC40FCD0FC40FCD0FC495E8070003C422801FE0122B0FD1114C234D0FCD0FC40FCD0FC40FCD0FC495E8070003C424F8E0
:40144000022B120C22700DE00C2B0BD1084C1B4D0FCD0FC40FCD0FC40FCD0FC495E8070003C422800248BDE8384004B0704700BF745602082402091038020910480209107F
:4014800058020910740209108C020910A8020910C8020910E80209100403091020030910340309104803091068030910B0030910E803091014040910500409108C0409102F
:4014C000032902D1002303707047042901D10123037070478161704738B5416008460BF0ABFA02460B46002015490BF035FC04460D460022134B0BF095FD28B120462946A3
:401500000EF06EFD04460D4600220E4B204629460BF06AFD68B122462B46002009490BF01BFC0022084B0BF03BF90EF059FD04460D46204629460BF07FFD0BF07DFA38BD35
:4015400000005F400000F03F0000E03F08B5816008460BF071FA02460B46002001490BF0FBFB08BD00003D40072902D1012343617047062902D14FF0FF334361704700BFE7
:40158000082902D10123C3617047092901D10223C361704730B585B005460C46012903D10123099A13708BE0022903D10023099A137085E0C81EC0B2012807D8099B1B7876
:4015C000002B6ED12846FFF77BFF79E005291BD1099B1B78002B66D1089B5A1E40F6B7339A4262D83C4B089A83FB0232089BDB17C3EB62136422089902FB1313002B56D117
:401600002846FFF767FF5BE00A291CD1642A12D0C82A10D0B2F5FA7F0DD0B2F57A7F0AD0B2F5FA6F07D041F288339A4203D042F210739A423DD111462846FFF74DFF0B9BFA
:40164000C3E900013CE00B2914D1B3F5FA7F09D0B3F57A7F06D040F2DC52934202D0B3F5FA6F28D119462846FFF770FF0A9BC3E9000125E08B1FDBB2012B06D8099B1B7805
:40168000DBB92846FFF770FF1AE0A1F10803DBB2012B15D8099B1B788BB92846FFF770FF0EE00C240CE00C240AE0112408E0112406E00E2404E00F2402E00C2400E00C2471
:4016C00005F110030FCB8DE80F0095E80F0000F0D1F9204605B030BD1F85EB510000000070B516460BA3D3E900230BF00BFA04460D4630460BF0A0F922462B460BF002FAD0
:401700000022034B0BF0FEF90BF096FC70BD00BF0000303F0000000000C8A940081A7047F0B5ADF2044D054616461F4600242FE055F82420C2F30B0230463946FFF7D0FFF4
:401740004DF82400631FFA2B1CD8231F5DF82330E21E5DF8222003EB4202A31E5DF8233003EB43031344621E5DF8222003EB420303440A4A82FB0312DB17C3EB6203084AF0
:4017800042F82430032C02DC054B43F824000134FF2CCDDD02480DF2044DF0BD398EE3387457020884B070B504AC84E80F00DDE90E230C98FFF7B4FF06460A9ADDE90E014A
:4017C000FFF78EFF0546002428E0631EFE2B24D8099B012B0FD104F18043013B56F8230085421ADD56F824108D4216DCFFF796FF002812DD16E0B3F1FF3F0ED104F1804322
:40180000013B56F82300854207DA56F824108D4203DBFFF783FF002806DB0134FF2CD4DD002002E0204600E02046BDE8704004B0704700BF08B5114802F086FE4FF47F0017
:4018400002F076FE0E4802F077FE02F037FF0E2002F0A6FE7822A0210A4803F019F90A4802F072FE094802F067FE022002F098FEC822A021064803F00BF908BD8447091008
:40188000FF80FF00C8040910EC20091080FF8000D4040910F8B506460F4614461D46002002F046FE0C4802F047FE3B4632460021084603F00BF9012002F0F8FD074802F01C
:4018C0003BFE7B1B321B2946204602F0AFF8022002F044FEF8BD00BF00808000D3D3D3002DE9F04F83B083468A46174699460C9D0D9EA0EB450393FBF2F30193A1EB4608B6
:4019000098FBF9F8012002F0D1FD124802F014FE022002F023FE012408E008FB04610B46C5EB0B02284603F017FB01344C45F4DB0124DDF8048008E008FB0450C6EB0A03A9
:401940000246314603F008FB0134BC42F4DB03B0BDE8F08FD3D3D300F0B587B005460E4617461C46224802F0E3FD224802F0ECFD214802F0E1FDB7F57A7F0ADB1F4A82FBFC
:401980000732FF17C7EBA2121D4901A80CF0C0FB04E03A461B4901A80CF0BAFB3246294601A803F075F8154A82FB0432E317C3EBA2124FF47A7101FB1241B4F57A7F04DB2E
:4019C000114901A80CF0A4FB09E0104B83FB0103C917C1EB63130E4901A80CF099FB06F11402294601A803F053F807B0F0BD00BF00808000840B0910D3D3D300D34D6210B8
:401A0000EC04091000050910140509101F85EB5128050910F0B587B004460D4617461E460F4802F085FD0F4802F08EFD0E4802F083FD3A460D4901A80CF06AFB2A462146CF
:401A400001A803F025F83246094901A80CF060FB05F11402214601A803F01AF807B0F0BD00808000840B0910D3D3D300400509105405091084B000B583B00DF1100E8EE8BF
:401A80000F00042301930523009308230A22F0214FF4A070FFF724FF069B059A0F21C820FFF75AFF089B079A0F210A20FFF7B2FF03B05DF804EB04B0704700BFF8B50646C7
:401AC0000C4615461F46042002F0F0FC384602F033FD2EB92A462146069803F077FDF8BD2A462146079803F071FDF8BD2DE9F0410546884616461F46002408E055F8242070
:401B000030463946FFF7ECFD45F824000134B4F59B7FF3DB4FF49B722946404603F06EFBBDE8F081024A136801331360704700BF80EE0208014B1868704700BF80EE0208DD
:401B4000044B1B681844034B1B68C31A002BFADC704700BF80EE020810B52021002000F011FF002409E0204600F03CFF20B90849204600F029FF02E00134042CF3D9042CEB
:401B800003D9A421034800F04BFE00F0D3FE10BD251B08106805091008B5FFF7DDFF08BD08B54FF40041034802F088F8024802F051FD08BD745B02080086091038B500F09E
:401BC00065F9754C0425A560142003F01BFD6560642003F017FDA560642003F013FD282000F09EF9112000F09BF9642003F00AFD362000F095F9A02000F0A2F93A2000F012
:401C00008FF9652000F09CF9B22000F089F90C2000F096F90C2000F093F9002000F090F9332000F08DF9332000F08AF9B72000F077F9352000F084F9BB2000F071F92B20DA
:401C400000F07EF9C02000F06BF92C2000F078F9C22000F065F9012000F072F9FF2000F06FF9C32000F05CF9112000F069F9C42000F056F9202000F063F9C62000F050F980
:401C80000F2000F05DF9D02000F04AF9A42000F057F9A12000F054F9E02000F041F9D02000F04EF9002000F04BF9052000F048F90E2000F045F9152000F042F90D2000F0B6
:401CC0003FF9372000F03CF9432000F039F9472000F036F9092000F033F9152000F030F9122000F02DF9162000F02AF9192000F027F9E12000F014F9D02000F021F90020A0
:401D000000F01EF9052000F01BF90D2000F018F90C2000F015F9062000F012F92D2000F00FF9442000F00CF9402000F009F90E2000F006F91C2000F003F9182000F000F9A4
:401D4000162000F0FDF8192000F0FAF82B2000F0E7F8002000F0F4F8002000F0F1F8002000F0EEF8EF2000F0EBF82A2000F0D8F8002000F0E5F8002000F0E2F8012000F054
:401D8000DFF83F2000F0DCF80A2003F03BFC292000F0C6F838BD00BF8002324030B5A1B000241B941C941D941E941F946822214601A80BF089FC234622461449144802F0D1
:401DC000C9FD05464FF4A072F021204605F005FB4FF4A072F021204605F016FB06231D931BA9284603F0F7FF0A4B01930A4B02930A4B04930A4B06930A4B08930A4B0B4A04
:401E000001A9284604F007F821B030BD888D0910E08D0910211F0810411F0810611F0810711F08107D1F081029650810C1680810012904D108B5FFF7C1FE002008BD4FF0E5
:401E4000FF30704710B504462146034800F004FE0028F9D010BD00BF00006640054BD3F80833C3F30803002BF8D0024BD3F84003704700BF000066400822034B1A700922F8
:401E800003F580731A7070472C12344008B5044B1B7823B9FFF7F0FF0122014B1A7008BD74DB020830B400240BE0084B1B7813F0010FFAD1064B18700D5D03F580731D705B
:401EC00001349442F1D330BC704700BF281634402C143440084B1B7813F0010FFAD140F00200064B1870044B1B7813F0020FFAD0034B1878704700BF281634402C14344002
:401F00002C163440F8B507460E461546002404E03846FFF7DFFF30550134AC42F8D3F8BD054B1B7813F0010FFAD10022034B1A7003F5807318707047281634402C14344075
:401F4000054B1B7813F0010FFAD10122034B1A7003F5807318707047281634402C14344008B58AB201460120FFF79CFF08BD00BF08B50120FFF7AEFF08BD00BF08B58AB2A1
:401F800001460120FFF7BEFF08BD00BF1F4B98422DD00CD840282ED003D8E8B1102828D02FE0802829D0B0F5807F28D029E0184B984228D006D8B0F1204F0DD0154B9842C4
:401FC00012D01EE0144B98420AD00133984209D0023B984215D101E0002070470F4870470F4870470F4870474FF4A0007047074870470D4870470D4870470D487047034819
:4020000070470C4870474FF4A400704706005200010000F0090000A0040000F0010052000200520003005200010050000200500005005200FF00520038B5124B1B6893F8BB
:402040003130012B04D840F2C3110F4800F0E8FB0C4B1D682A6AB5F8B03013442C46D5F8B420D358002B0BDB084B1868FFF78EFF6B6801229A6063689B68002BFBD138BD24
:40208000034838BD84EE02089005091078DB0208020050001A4B186128B102230370FF23437000234380174B1B6893F850202AB300B583B0B3F93830ADF8003000230193B8
:4020C0001149684600F04EFBBDF90030002B08DB590903F01F03012202FA03F30B4A42F82130084B1B6893F8513023B102220849012000F077FA03B05DF804FB704700BF15
:4021000078DB020884EE02084D44020800E100E00545020808B50248FFF7BCFF08BD00BF8CDB020838B50B4B1B68D3F8B4301B58002B0DDA0D4604460B0C1B0423B140F296
:40214000D521054800F06CFBA9B26160002038BD024838BD84EE0208D005091001008A0038B50368002B01DA002300E0094B73B90D460446C2600B0C1B0423B140F2BB21A8
:40218000054800F04DFBA9B2A160002038BD014838BD00BF01008A00D005091038B504460D4619B99921084800F03AFB074B1B68D3F8B4301B59002B03DAE3682B60002032
:4021C00038BD034838BD00BF1006091084EE020801008A00254B1B6893F8313083423AD900293AD00B6813F01F0F38D170B50D4604461E4B1B6893F83130984204D340F2A1
:40220000C3111B4800F00CFB184B1B68186AB3F8B03004FB0304174E34602A68D208002168680BF051FA00212046FFF77BFF346825B940F293310E4800F0F2FA2A460021B1
:402240002046FFF78DFF60B900210A4B1868FFF769FF40B970BD084870470748704706487047064870BD054870BD00BF84EE0208D005091090DB020803018A0001018A0024
:4022800010B504461346B2B9A9B9124B1B6893F83130984204D340F2C3110F4800F0C0FA0C4B1B681A6AB3F8B03004FB03240B4B1C60002010BD43B149B1084A51609360B3
:4022C000111D2046FFF786FF10BD054810BD044810BD00BF84EE0208D005091090DB020803018A002DE9F0411B4B1B68DC68236883422CD90D464609A0EB4610012303FA36
:4023000000F819B900F0F9FA074600E00027124B18680368002B01DA002300E00F4B83B9626852F8263018EA030F05D023EA080342F82630002400E0094C0021FFF7F2FE5A
:4023400000E0084C25B9384600F0DBFA00E0064C2046BDE8F08100BF90DB020801008A00020188000301880004018A000B4B1B68DB681A6882420CD94109A0EB4110012265
:4023800002FA00F05B6853F82130184203D004487047044870470448704700BF90DB02080101880004018A0000018800024B1B680BB9014B186070479CDB02082DE9F843E5
:4023C0000446884691461D46089F2C4B1B681BB9B5212B4800F024FA284B1B682C2000FB04F01C18EEB21E50C5F3072363602D0CA560244B1B6893F831309E4204D340F2A2
:40240000C311214800F00CFA1E4B1B68196AB3F8B02006FB02162661666893F832309E4204D340F2DF11184800F0FAF9154B1B681D6A803605EB46156561A668330C1B046B
:4024400023B14FF4FF71104800F0EAF9330C1B0423B140F2FF110C4800F0E2F9B3B243EA0646AE60C4F81C90C4F820800023A36117B1B7F90030A381BDE8F8839CDB0208D3
:402480005006091084EE0208D0050910F0B58FB0044618B95221274800F0C2F9A369072B03D95621234800F0BBF9E36A1BB95821204800F0B5F9236B1BB959211D4800F046
:4024C000AFF907AD04F114060FCE0FC537682F6002AD26460FCE0FC533682B60164B1B68B3F93620079B1344ADF83030089B0D93A26AE16A0CAD00953B460A98FFF75EFF5E
:4025000000210091069B0A460598FFF757FF216B284600F027F9BDF93030002B08DB590903F01F03012202FA03F3044A42F821300FB0F0BD5006091084EE020800E100E064
:40254000F8B506460F461D4614461AB9FD211F4800F066F91E4B1B681BB9FE211B4800F05FF91B4B1B682C2101FB063001FB07314B68012202FA03F31B04466802FA06F6F6
:402580000269EAB18F69EFB91268002A01DA002200E0104AC2B92288134323600369DC6001238B614D620469330C1B0423B140F2BB21094800F034F9B2B2A2600020F8BDDF
:4025C0000648F8BD0648F8BD0548F8BD500609109CDB020801008A00D005091004028A0007028A00F8B505460F4616460E4B1B6823B94FF4AF710D4800F012F90A4B1B685B
:402600002C2404FB0534236A23B94FF4B171074800F006F9E369B34204D9236A43F826700020F8BD0248F8BD9CDB0208500609100A028A0070B582B000230193044620B9FF
:4026400040F2D111284800F0EBF8236923B94FF4E971254800F0E4F8636923B940F2D311214800F0DDF8236A23B94FF4EA711E4800F0D6F86369DD682A0C20D012041A60E7
:402680001B682069194B1B68D3F8B430C358002B15DA01A9FFF782FD60B9019803681E0CDBB2E269934206D2226A52F8233013B1984700E0002631462069FFF733FDADB201
:4026C00075B16369ADB21D601B68636A1BB198470023636202E0A36A03B198470023A36163691B6802B070BD5006091084EE020810B50446074B1B6823B940F2B111064865
:4027000000F08EF8034B1B682C2000FB0430FFF791FF10BD9CDB02085006091038B50D4B9A680D4B9A420FD10D46044621B940F237110A4800F074F804F11003064A52F8F8
:40274000230042F8235038BD1030054B53F8200038BD00BF00ED00E000400208900609100000081048B338B504460D464368072B03D93221134800F053F8B4F90030626839
:40278000002B08DB5201D2B203F1604303F5614383F8002305E003F00F035201D2B20A49CA540A4B9A680A4B9A4208D12946B4F90000FFF7B3FF002038BD064870470020D2
:4027C00038BD00BF9006091014ED00E000ED00E0004002080100560010B5044605E0084B186800F081F8A4F50044B4F5004FF6D8044B186800FB04F000F076F810BD00BFAC
:40280000D4420208D042020808B5034B1B7800FB03F000F069F808BDCC42020801BEFEE738B50D46044C1822014620460BF0B5FCA5610020FFF7F2FF78490208FEE700BF5F
:4028400008B50268254BDA6142681A6282685A62C2689A620269DA6242691A6382695A63C2699A631E4A916AD963D16A1964516A5964516B9964926BDA64F1EE103A13F006
:40288000900F27D0026A154B1A65426A5A65826A9A65C26ADA65026B1A66426B5A66826B9A66C26BDA66026C1A67426C5A67826C9A67C26CDA67026DC3F88020426DC3F8D2
:4028C0008420826DC3F88820C26DC3F88C20026EC3F89020FFF7B2FF08BD00BF7849020800ED00E0000000000230800803D001300238FCD100BF00BF7047EFF3108072B61A
:40290000704780F310887047084B1B6813F4803F07D17047064B53F8243003B19847013401E010B50024042CF4D910BD10E000E0DCDB0208044B1A6842F002021A601A6813
:4029400042F001021A60704710E000E0042805D10A4A136843F0040313607047084B1B681A68D3F8A030000600F04070D050034A136823F004031360704700BF10E000E098
:4029800084EE020810B50C46002304E000210A4A42F823100133042BF8D9084A084BDA63FFF7D4FF24F07F44064B5C6000229A60FFF7C0FF10BD00BFDCDB02080929081070
:4029C0000040020810E000E00346042805D8044A52F8200042F8231070470020704700BFDCDB0208042803D8024B53F82000704700207047DCDB0208014B1860704700BFF0
:402A000084EE020810B4D0F8003303F00F03072B06D900230DE0D0F84043CC54013300E000239342F7D306E0D0F8404321F8134001339342F8D35DF8044B704710B5144609
:402A4000D0F80833C3F308039A4200D31C462246FFF7D8FF204610BD036813F4006F01D0802200E04022D0F80832C3F30803934203D0C0F84012012070470020704700BFA0
:402A800010B4D0F8003203F00F03072B06D900230DE0CC5CC0F84042013300E000239342F7D306E031F81340C0F8404201339342F8D35DF8044B704710B51446036813F49E
:402AC000006F01D0802200E04022D0F80832C3F30803D31AA34200D81C462246FFF7D0FF204610BD2DE9F84305460C46036813F4006F02D04FF0800801E04FF04008D5F8E6
:402B0000007207F00F07A26A012A19D9D4F82490E262561EB9F1000F00D026B940F273512548FFF77DFE324649462846FFF7C4FFA36A1B1AA362072F00D940004844606267
:402B4000D5F80832C3F30803984533D0A36A012B30D10023A362072F02D8636A1E7801E0636A1E88FFF7C9FEC5F840624FF40073C5F8803FD5F8803FFFF7C3FED5F8883F5F
:402B800023F4007222F0010242F4007623F4EE6323F0030323B140F22A410848FFF740FEC5F8886F236843F002032360236B0BB101209847BDE8F8834408091084080910E7
:402BC0002DE9F04105460C46036813F4006F01D0802600E040267608A769D4F81C8017B1B8F1000F04D14FF499613148FFF718FE424639462846FFF721FF236A0344236262
:402C0000E3691B1AE36173BBA368FBB1E3689E4201D8013E00E05E1E2B6813F4006F01D0802300E040239E4204D34FF420712148FFF7F6FDD5F8043323F0FF03F6B21E438C
:402C4000C5F804630123C5F8C83F02E00023C5F8C83F636823F001036360236B33B304209847BDE8F081A169D5F8002302F00F02072A00D940000844A0619E4216D95C1E70
:402C80002B6813F4006F01D0802300E040239C4204D34FF420710748FFF7C2FDD5F8043323F0FF02E3B21343C5F80433BDE8F0814408091084080910002800F0A48170B54E
:402CC0000546002900F0A18116460C460B78022B03D93F21A248FFF7A3FD637B023BDBB2062B03D940219E48FFF79AFDA37B3BB1022B05D0032B03D041219948FFF790FDD8
:402D000094F82130012B03D942219548FFF788FD94F82830012B03D943219148FFF780FD2378012B06D86368083B082B94BF0023012307E0A37F2BB16368013B062B94BF67
:402D4000002301231BB145218548FFF769FDA368053B042B03D946218148FFF761FD6369FF2B03D947217E48FFF75AFDA369FF2B03D948217A48FFF753FDA37C6BB1237831
:402D800033B9A368092B05D1A37B2BB1012304E0012302E0012300E000231BB14A217048FFF73EFD636B23F4366323F00D031BB14C216B48FFF734FDE36B23F4EE6323F046
:402DC00003031BB14D216648FFF72AFD2378022B01D1A37F13B16268013A00E00022237F13B14FF4803100E00021A368082B02D84FF4006300E000230B4302F00F0213437E
:402E000043F000732B60226B2B6813F4006F01D0802300E040239A4203D362215048FFF7FFFCA26B2B6813F4006F01D0802300E040239A4203D363214948FFF7F1FC626A13
:402E40002B6813F4006F01D0802300E040239A4203D364214248FFF7E3FC23781B0603F040732B64637F0BB1402200E00022A37C13B14FF4806300E000231343227C12B146
:402E80004FF4807200E000221343627C12B14FF4007200E000221A43E36A013B1B0403F470231343627B013A02F007021343A27B120102F030021343AB64237B13B14FF481
:402EC000807200E00022E37B23B92378022B03D1012302E0012300E0002313B14FF4007300E000231A43A368013B03F00F031343C5F80033227DA3691B0403F47F031343D6
:402F0000C5F81033E26AD5F8003303F00F0303339A4201D3102A03D97A211148FFF780FCE37F23B12378012B03D0002302E0002300E0012313B14FF4807200E00022637B09
:402F4000013B03F007031A43A37B1B0103F0300313436B64237B2BB14FF4807203E000BFC80809100022A368013B03F00F0313432278012A02D14FF4803200E00022134353
:402F8000C5F8003294F83030C5F8043394F8203013B14FF0007200E0002294F82130012B02D14FF0807300E00023134394F82820012A02D14FF4803200E00022134394F8DD
:402FC000242013432B6594F83830C5F80432636B23F4926323F002031B051B0DC5F8C83FE36B23F08C035B055B0DC5F8883F76B1002070603060B060F0603062F062306308
:40300000044B736370BD04487047034870BD002070BD00BFEFCDAB000160AA000B694A69934202D34869181A7047CA694869101A184470472DE9F04107460D46036813F460
:40304000006F02D04FF0800801E04FF040084FEA5808D7F80863C6F308062C6926E00134EB689C4200D100246B699C420FD12B6B0BB1082098476B699C4208D10023C7F8F8
:40308000C83F0CB1013C13E0EC68013C10E0D7F84023D7F8003303F00F03072B02D8AB681A5502E0AB6823F81420013E002ED6D12C61EC6829463846FFF7B0FF201A80450A
:4030C00019D908B1441E00E000243B6813F4006F01D0802300E040239C4204D34FF420710648FFF79DFBD7F8040320F0FF03E0B21843C7F80403BDE8F08100BF8408091075
:4031000038B504460D46D0F8003E13F0080F35D0D0F8CC3F13F448730AD04A681A434A60C0F8C03FD0F8C03F0B6B0BB110209847D4F8CC3F13F4006F09D06B6843F4006366
:403140006B604FF40063C4F8C03FD4F8C03FD4F8CC3F13F0010F11D0EB6923B129462046FFF72EFD05E0AB681BB129462046FFF761FF0123C4F8C03FD4F8C03FD4F8003ECC
:4031800013F0040F2ED0D4F88C3F13F4A0630AD02A681A432A60C4F8803FD4F8803F2B6B0BB120209847D4F88C3F13F0010F08D029462046FFF796FC0123C4F8803FD4F846
:4031C000803FD4F88C3F13F4007F0BD00022C4F8882F2B6823F001032B60EA622B6B0BB10220984738BD00BF002800F0248138B50546002900F021810C460B78032B03D96C
:4032000057219148FFF70CFB6378032B03D958218D48FFF705FBA378032B03D959218A48FFF7FEFA2379032B03D95A218648FFF7F7FAA379012B03D95B218348FFF7F0FA97
:40324000E379012B03D95C217F48FFF7E9FAE378012B03D95D217C48FFF7E2FA6379022B03D95E217848FFF7DBFA237A032B03D95F217548FFF7D4FA237803F00301627853
:40328000930003F00C030B43A278120102F03002134322799201D2B21343A279920602F080621343E279D20602F000621343E278120602F0807213436279120702F040529E
:4032C0001343227A43EA82732B60E3686B602369AB60237A032B00F2B280DFE803F002063388E36AEB60002038BD636903F50063B3F5805F03D378215348FFF791FAA36924
:4033000003F50063B3F5805F03D379214E48FFF787FAE369013BFF2B03D97A214A48FFF77FFA6369C3F30B02A369484901EA03331A43E369013B42EA0363EB60E36A2B611C
:40334000002038BD636903F50063B3F5805F03D387213D48FFF764FAA36903F50063B3F5805F03D388213848FFF75AFAE369013BFF2B03D989213448FFF752FA236A03F581
:403380000063B3F5805F03D38A212F48FFF748FA636A03F50063B3F5805F03D38B212A48FFF73EFAA36A013BFF2B03D98C212648FFF736FA6269C2F30B01A269234B03EAA0
:4033C00002320A43E169013942EA0162EA60226AC2F30B02616A03EA01331343A26A013A43EA02632B61E36A6B61002038BD184B1B6893F82A30012B23D9636903F50063B2
:40340000B3F5805F03D3A1210F48FFF709FAE369013BFF2B03D9A2210B48FFF701FA6369C3F30B03E269013A43EA0263EB60E36A2B61002038BD07487047064838BD054811
:4034400038BD044838BD00BF0809091000F0FF0084EE020801004E00002860D0F8B50346002A5ED0106800285DD03148006890F83300884259D91E4614460D469368032B2E
:4034800003D9EF212B48FFF7CBF92768284B1B6893F833309D4204D340F2E1512648FFF7BFF9234B1A68B2F85A309919B2F85C3005FB0313DF60B2F85A10B2F85C3031442A
:4034C00005FB03118B681B0C1B048B60B2F85A301E44B2F85C1005FB01F123792BB192F85F70012303FA07F700E00027A06892F85E50A8400322AA4000EA02033B43227BBE
:4035000012B14FF0004200E000221343627B0AB1042200E00022134373500020F8BD074870470648F8BD0548F8BD0448F8BD00BF84EE0208080909104409091001004E001B
:403540002DE9F8430E46074618B93A217548FFF767F91EB93B217348FFF762F9002F00F0DA80002E00F0DA8032686F4B13401BB14A216C48FFF754F972686C4B13401BB165
:403580004B216848FFF74CF9B36813F0FC2F03D04C216448FFF744F9F36813F0FC2F03D04D216048FFF73CF9337D032B03D94E215C48FFF735F9B369B3F5803F03D34F21F5
:4035C0005848FFF72DF9F36D072B03D950215548FFF726F9336EB3F5803F03D351215148FFF71EF9736EB3F5803F03D352214D48FFF716F9736843F000437B60B3683B617A
:40360000F3687B613369BB61337D9B07FB61B3693B62336803F46068736803F00409002435E02546A31D06EB83035A68404B13401BB163213B48FFF7F3F8AB1D06EB830391
:40364000596805F1200247F822105B6813F0012F0BD1B8F5606F08D1B9F1000F05D04FF47842344B23F8152003E00022314B23F81520726F02F11C7303F58033520093FBC0
:40368000F2F31BB22C4A42F825300134E4B20F2CC7D9F36DC7F81832F36DC7F81032336EC7F82832336EC7F82032736EC7F83832736EC7F8303296F87030DBB1B36EB3F1EC
:4036C000804F03D382211748FFF7AAF8F36E23F44F0323F0FF031BB183211248FFF7A0F86FF04043C7F80433B36EC7F80033F36EC7F84433D7F8003F3F2B02D0D7F8003F7A
:4037000013B90B23C7F8003F336843F400133B600020BDE8F8830948BDE8F8830748BDE8F88300BF800909100811DF0001FE302088CA887E88EE0208A8EE020801000600CA
:4037400038B50D46044618B9B5211748FFF768F82CB30023236063604FF0031222616261A361E361236206E003F12002002144F822100133DBB20F2BF6D90023C4F8183236
:40378000C4F82832C4F838325DB16FF04043C4F804330020C4F84003C4F8440338BD034838BD002038BD00BF800909100100060008B50368002B0ADBD0F8A032002BFBDB43
:4037C000036843F0004303600220FFF71DF808BD38B505460C46012904D940F271110648FFF71EF8012C04D16B6843F480336B6038BD01236B6238BD8009091038B50546B5
:403800000C460F2904D940F27B210648FFF708F80F2C04D8603455F8240080B200E0002000B238BD8009091070B539B900240AE015F8010BFEF706FB013402E016460D467E
:403840000024B442F4DB204670BD00BF70B561B900240FE0FEF702FBC0B2287001340A2808D00D2806D0013502E016460D460024B442EFDB204670BD08B502490248FFF7EF
:403880003FFC08BDE8EE02080000664008B5114B1B785BB9104A11491148FFF70DFA11491148FEF75FFF01220A4B1A700E4BB3F90030002B08DB590903F01F03012202FAD7
:4038C00003F30A4A42F82130054A136843F00043136008BDF0DB0208E8EE0208BC09091000006640793808108805091000E100E038B504461E4B1A68916892F8703003F0DA
:403900000203DBB243F08043C1F800340369FF2B0AD89168B2F874200A44916821F47F411B029BB20B439360114B1A68906892F87310032303FA01F592F8703092F872106A
:4039400003FA01F1294303F002030B4343F00043C0F800349368D3F80034064D00212846FFF7EEFEA1682846FFF7EAFD38BD00BF84EE020800001D4108B5074B5B6813F4CB
:40398000802F04D001210448FFF722FF08BD00210148FFF71DFF08BD00001D4108B5084B1B7963B907490848FEF7DCFE044B5B792BB90122024B5A710448FFF799FF08BD8B
:4039C00028DC0208FD39081070050910980A091008B5084B1B7913F0010F06D1FFF7DEFF044A137943F0010313710348FFF7E0FE08BD00BF28DC020800001D4110B5094B04
:403A0000D3F81042072C04D940F231610648FEF707FF044BC3F81042D3F81022D3F8103210BD00BF00001D415C0A0910F0B51B4C85B02668F76C3D18306DBC18411801919A
:403A4000C718337E02A9013B9BB2EA1A0A801A198A80019A0800D21ADB194A80CB8004F007FC002818D022000199280002F0A6FF22003900280002F0A1FF019B7A1E5E1CDA
:403A80003100280002F0C0FF7A1E3100200002F0BBFF04F03DFBE4E705B0F0BDD8420208064B5A68596B01325A60C2008A18596A51600021117058627047C04620EF02081C
:403AC0000F2330B542680E4CD90009190D6C2100AA4202D2013BF7D211E00F2B0FD82468A21A0A608268C068002A00D05060002801D0026003E00833DB00CB185A6030BDF3
:403B000020EF0208F8B5284C0600E368A26B013B0818D3180D00984206D80368002B03D14368F618FFF7CCFFA36B9D420BD92B1F1F68EF1B3B68002B05D17B683800F61884
:403B40003D00FFF7BDFF0F23DA00A218126C964202D2013BF8D225E00F2B23D80833DA00A21850680022A91904392A606E60A8602D610E6029000831904200D04160EA6033
:403B80002200DB00E318A860596023682932F31823601278002A05D1E268D31AA268934200D9A3603000F8BD20EF0208F0B5234B87B09C6BDB680490013BE31803932368DE
:403BC0006568002B30D1039B6719BB422CD93B680293002B28D0194EDB00726B9B5C012B22D17B6820000193F36A0593FFF768FF3B68726BDB00D3185C60019A390020003D
